:020000040800F2
:10000000A04C0020E90200085F3E00081F330008F2
:10001000413E0008290800083D4A00080000000091
:10002000000000000000000000000000290200089D
:10003000CF09000800000000850200086B4000089E
:100040000303000803030008030300080303000878
:100050000303000803030008030300080303000868
:100060000303000803030008030300080303000858
:10007000D108000803030008030300080303000875
:100080000303000803030008030300084D080008E9
:100090002D0800083D0800080303000803030008BA
:1000A0000303000803030008030300080303000818
:1000B0004941000803030008030300080303000884
:1000C00003030008030300080303000803030008F8
:1000D000030300080303000803030008194900088C
:1000E00003030008030300080303000803030008D8
:1000F00003030008030300080303000803030008C8
:1001000003030008030300080303000803030008B7
:1001100003030008030300080303000803030008A7
:100120000303000803030008030300080303000897
:100130000303000803030008030300080303000887
:100140000303000803030008030300080303000877
:1001500003030008E1080008030300082D4A000813
:100160000303000803030008030300080303000857
:100170000303000803030008030300080000000055
:10018000030300080303000800F002F800F03CF845
:100190000AA090E8000C82448344AAF10107DA45E2
:1001A00001D100F031F8AFF2090EBAE80F0013F0F8
:1001B000010F18BFFB1A43F00103184760790000D4
:1001C00080790000103A24BF78C878C1FAD8520765
:1001D00024BF30C830C144BF04680C6070470000C1
:1001E0000023002400250026103A28BF78C1FBD840
:1001F000520728BF30C148BF0B6070471FB507F0DA
:10020000BEFB1FBD10B510BD00F074F91146FFF71D
:10021000F5FF05F003FD00F092F903B4FFF7F2FFDC
:1002200003BC00F095F900002C4B19680868B0E891
:10023000F04F80F30988BFF36F8F4FF0000080F319
:10024000118870470000000008480068006880F3CB
:1002500008884FF0000080F3148862B661B6BFF3DF
:100260004F8FBFF36F8F00DF00BF00BF08ED00E0CE
:10027000DFF80C00016841F470010160704700BFB5
:1002800088ED00E0EFF30980BFF36F8F134B1A681E
:100290001EF0100F08BF20ED108A20E9F04F10600B
:1002A00009B44FF0500080F31188BFF34F8FBFF3B4
:1002B0006F8F06F003FB4FF0000080F3118809BC3C
:1002C00019680868B0E8F04F1EF0100F08BFB0ECD6
:1002D000108A80F30988BFF36F8F7047C000002039
:1002E000EFF3058070470000094880470948004740
:1002F000FEE7FEE7FEE7FEE7FEE7FEE7FEE7FEE7D6
:10030000FEE7FEE704480549054A064B7047000032
:100310003541000889010008A0460020A04C0020BB
:10032000A0480020A048002053EA020C00F0698099
:100330002DE9F04B4FF00006002B1FBFB3FA83F5F9
:1003400003FA05F424FA05F65E4012BF1643B2FA2A
:1003500082F502FA05F4C5F120051EBF22FA05FC5C
:1003600044EA0C04203556EA044C4FEA144418BF02
:10037000641C4FF000084FF00009904271EB030C31
:1003800039D3002919BFB1FA81F701FA07F6B0FA9B
:1003900080F700FA07F6C7F120071EBF20FA07FC16
:1003A00046EA0C062037B6FBF4FCA7EB0507103F26
:1003B00007F01F0BCBF120060CFA0BFB2CFA06F60C
:1003C00044BFB3460026202FA4BF5E464FF0000B6B
:1003D0005BEA060C08BF4FF0010B19EB0B09ABFBF6
:1003E000027C48EB0608C01B06FB02CC0BFB03CCCF
:1003F00071EB0C01C1E70B46024641464846BDE899
:10040000F08B13B54FF000004FF00001AFF3008008
:10041000BDE81C40704710B5203AC0F00B80B1E831
:100420001850203AA0E81850B1E81850A0E8185029
:10043000BFF4F5AF5FEA027C24BFB1E81850A0E832
:10044000185044BF18C918C0BDE810405FEA827C4C
:1004500024BF51F8043B40F8043B08BF7047D20763
:1004600028BF31F8023B48BF11F8012B28BF20F804
:10047000023B48BF00F8012B70474FF0000200B567
:10048000134694469646203922BFA0E80C50A0E8B7
:100490000C50B1F12001BFF4F7AF090728BFA0E865
:1004A0000C5048BF0CC05DF804EB890028BF40F831
:1004B000042B08BF704748BF20F8022B11F0804F73
:1004C00018BF00F8012B704770477047704710B590
:1004D00000F008F8006810BD10B5044600F002F8FE
:1004E000046010BD00487047404600200048704737
:1004F000404600207546FFF7F9FFAE460500694605
:10050000534620F00700854618B020B5FFF7FAFEE5
:10051000BDE820404FF000064FF000074FF0000804
:100520004FF0000B21F00701AC46ACE8C009ACE885
:10053000C009ACE8C009ACE8C0098D46704710B5E9
:100540000446AFF300802046BDE81040FFF765BECB
:1005500001491820ABBEFEE72600020070470000EC
:1005600010B501221021024801F00EFA10BD000062
:100570000000024010B500221021024801F004FAE8
:1005800010BD0000000002407047000010B50122BD
:100590001146024801F0F8F910BD000000040240C5
:1005A00010B500220121024801F0EEF910BD000053
:1005B00000040240704710B5044603E04FF47A701F
:1005C00000F006F8201EA4F101018CB2F6D110BD96
:1005D00070B5034600BF00BF0020002200BF4FF0EF
:1005E000E0267569A82603FB06F44FF0E026B16902
:1005F00010E04FF0E026B06988420BD0884202D26A
:100600000E1A324402E02E1A0E4432440146A2422F
:1006100000D300E0EDE700BF70BD10B50024FFF788
:10062000B3FFFFF7C7FF04F083FF044305F014F89E
:100630000443204610BD00002DE9FC4105460E464E
:100640001746002000900190FFF794FF922000F0E1
:10065000D1F806226946122000F0ACF8FFF780FFBF
:100660009DF80100000200B29DF8001040EA01046C
:1006700000EE104AB8EEC00A4C48D0ED000A20EE59
:10068000200A86ED000A9DF80300000200B29DF8E2
:10069000021040EA010400EE104AB8EEC00A4348D6
:1006A000D0ED000A20EE200A86ED010A9DF8050033
:1006B000000200B29DF8041040EA010400EE104A66
:1006C000B8EEC00A3948D0ED000A20EE200A86EDC7
:1006D000020AFFF765FF08226946002000F06AF869
:1006E000FFF754FF9DF800000F2838D19DF8030054
:1006F000000200B29DF8021040EA010400EE104A28
:10070000B8EEC00A2A48D0ED000A20EE200A85ED96
:10071000000A9DF80500000200B29DF8041040EAAE
:10072000010400EE104AB8EEC00A2148D0ED000ADC
:1007300020EE200A85ED010A9DF80700000200B2B4
:100740009DF8061040EA010400EE104AB8EEC00A17
:100750001748D0ED000A20EE200A85ED020AFFF7C7
:1007600009FFA22000F046F802226946222000F08C
:1007700021F8FFF7F5FE9DF80000C0009DF801107C
:1007800040EA6114B4F5806F02DBA4F5006004B2A6
:1007900000EE104AF8EEC00AB4EE001AB3EE070AF3
:1007A00000EE810A87ED000ABDE8FC811C000020F4
:1007B0002000002070B506460C46154646F0800025
:1007C00000F018F806E0552000F014F82070641CC2
:1007D000681EC5B2002DF6D170BD70B504460D4639
:1007E00044F0800000F006F8552000F003F828706F
:1007F00070BD000001B582B04FF47A70012301AAE8
:1008000002A90090024801F0FFFD9DF804000EBD12
:10081000A403002070B505460C462846FFF7EAFF02
:100820002046FFF7E7FF70BD00BFFEE710B50248A6
:1008300000F0FBFA10BD00007C03002010B5024858
:1008400000F0F3FA10BD00007C03002010B5024850
:1008500000F0EBFA10BD00007C030020F8B507465D
:100860000C4615461E464FF400700D4908600020E6
:100870008860C86008200861380A0A4908704F700B
:10088000200A8870CC70280A08714D71300A88716E
:10089000CE716B460A460249034800F0C6F8F8BD1F
:1008A000D0080020A80000207C03002010B50749D4
:1008B000096891ED010ABDEEC00A10EE101A08B2E7
:1008C00000231A461946FFF7C9FF10BD9800002003
:1008D00010B5024800F0C8FD10BD00001C05002046
:1008E00010B5024800F0C0FD10BD00007C050020DE
:1008F0000146087810381823B0FBF3F20848805CF2
:10090000C865032A05D908686FF30900001D8865CA
:1009100003E008686FF309008865886D7047000080
:10092000E8790008014600208A6A8B69CBB932B1A8
:10093000012A0DD0022A03D0032A10D10EE000BFF5
:10094000CB6A03F08073B3F1807F00D1012007E010
:10095000CB6AB3F1C07F00D1012001E000E000BF0D
:1009600034E08B69B3F5005F1AD132B1012A07D0A8
:10097000022A03D0032A11D10AE000BF01200EE0B1
:10098000CB6A03F08073B3F1807F00D1012006E0D1
:10099000CB6AB3F1C07F00D1012000E000BF15E0B9
:1009A00032B1012A05D0022A04D0032A0CD103E077
:1009B00000BF00BF012008E0CB6A03F08073B3F1F1
:1009C000807F00D1012000E000BF00BF704770476A
:1009D00072B600BFFEE70000C92005F0E1FE0CE0A2
:1009E00000221146054805F007F8044804F0DAFF34
:1009F00000221146014804F035FFF1E7B00600205F
:100A000010B5024692F82030012B01D0022B06D1FE
:100A100010684069084314686061002010BD506A86
:100A200040F4802050620120F8E7F0B504460D46FE
:100A30001E4694F8207020688368A86800B900E01A
:100A400000BF012F01D0022F7DD103F0806030B9AB
:100A500003F0006018B903F0805000287ED0C3F383
:100A60000161012088403060A86860B9B5F800C015
:100A7000E86840EA4C5C206800F5C07000EB0110AB
:100A8000C0F800C00FE0D5E901C040EACC00D5F8BD
:100A90000CC040EA0C00D4F800C00CF5C07C0CEB94
:100AA000011CCCF80000D5F810C0206800F5C0701B
:100AB00000EB0110C0F804C0287D01280ED1206889
:100AC00000F5C07000EB0110406840F4807C2068A5
:100AD00000F5C07000EB0110C0F804C0D07900062A
:100AE00092F806C040EA0C4092F805C040EA0C209B
:100AF00092F804C040EA0C00D4F800C00CF5C07CA9
:100B00000CEB011CCCF80C00D078000692F802C067
:100B100040EA0C4092F801C040EA0C2092F800C074
:100B200040EA0C00D4F800C00CF5C07C0CEB011CB2
:100B3000CCF80800206800F5C07000EB01100068D8
:100B400040F0010C01E00FE008E0206800F5C07003
:100B500000EB0110C0F800C00020F0BD606A40F456
:100B6000001060620120F8E7606A40F48020606253
:100B70000120F2E7F0B504460A4694F82050012D12
:100B800001D0022D7ED1424901F50071086840F084
:100B900001000860086820F47C5008600868566A04
:100BA00040EA06200860107D00F01F06012000FAD0
:100BB00006F3C8699843C861A1F50071D069C8B946
:100BC000D1F80C029843C1F80C02908880B2968943
:100BD00040EA064601F51070576940F83760108802
:100BE00080B2168940EA064601F51070576900EB9D
:100BF000C7004660D069012819D1D1F80C0218430A
:100C0000C1F80C02908880B2168840EA064601F5C9
:100C10001070576940F83760908980B2168940EAB1
:100C2000064601F51070576900EBC70046609069F1
:100C300028B9D1F804029843C1F8040204E0D1F8BD
:100C400004021843C1F80402106928B9D1F814024B
:100C50009843C1F8140204E0D1F814021843C1F813
:100C60001402106A012804D1D1F81C021843C1F8FB
:100C70001C02D1F8000220F00100C1F8000200209F
:100C8000F0BDFFE7606A40F4802060620120F7E772
:100C900000640040704770B5044694F82050012D60
:100CA00001D0022D7DD151B92068C06800F0030049
:100CB00080B9606A40F400106062012070BD206855
:100CC000006900F0030028B9606A40F40010606217
:100CD0000120F3E7206800F5D87000EB01100068F0
:100CE00000F004009060906840B9206800F5D8706A
:100CF00000EB01100068400D106007E0206800F56F
:100D0000D87000EB01100068C0085060206800F542
:100D1000D87000EB0110006800F00200D06020687D
:100D200000F5D87000EB0110406800F00F000828B3
:100D300002D30820106108E0206800F5D87000EBAD
:100D40000110406800F00F001061206800F5D870B5
:100D500000EB0110406800F47F40000A90612068B9
:100D600000F5D87000EB01104068000C506120685D
:100D700000F5D87000EB011080681870206800F54D
:100D8000D87000EB0110806800F47F40000A5870B2
:100D9000206800F5D87000EB0110806800F47F0037
:100DA00000E03CE0000C9870206800F5D87000EB83
:100DB00001108068000ED870206800F5D87000EB34
:100DC0000110C0681871206800F5D87000EB0110A0
:100DD000C06800F47F40000A5871206800F5D870A0
:100DE00000EB0110C06800F47F00000C98712068CF
:100DF00000F5D87000EB0110C068000ED87131B951
:100E00002068C06840F020002668F06005E0206897
:100E1000006940F020002668306100204EE7606ADB
:100E200040F480206062012048E72DE9F05F04462D
:100E30000025206846692068D0F8049020688768FB
:100E40002068D0F80CA02068D0F810B02068D0F846
:100E5000188006F00100002855D007F00100C0B14D
:100E600001202168886007F0020018B1204600F0D8
:100E70008AFA0EE007F0040010B145F4006508E0BE
:100E800007F0080010B145F4805502E0204600F05C
:100E900079FA07F48070C8B14FF4807021688860D7
:100EA00007F4007018B1204600F06FFA0EE007F466
:100EB000806010B145F4005508E007F4006010B1FF
:100EC00045F4804502E0204600F05EFA07F48030E9
:100ED000C8B14FF480302168886007F4003018B141
:100EE000204600F054FA0EE007F4802010B145F4DB
:100EF000004508E007F4002010B145F4803502E019
:100F0000204600F043FA06F0080038B10AF010005D
:100F100020B145F4007510202168C86006F0040077
:100F200040B10AF0080028B108202168C8602046B6
:100F300000F0B8F906F0020038B12068C06800F08F
:100F4000030010B1204600F0AFF906F0400038B1C0
:100F50000BF0100020B145F4806510202168086175
:100F600006F0200040B10BF0080028B108202168ED
:100F70000861204600F0D4F906F0100038B120686E
:100F8000006900F0030010B1204600F0CAF906F431
:100F9000003040B109F0100028B1102021684860ED
:100FA000204600F0BFF906F4803040B109F0080097
:100FB00028B1082021684860204600F0E9F906F4CD
:100FC000004088B309F0040078B306F4807020B1C3
:100FD00008F0010008B145F0010506F4007020B1E9
:100FE00008F0020008B145F0020506F4806020B167
:100FF00008F0040008B145F0040506F40060A0B153
:1010000008F0700088B108F07000402817D006DCA6
:1010100010280BD020280CD0302819D10CE05028F3
:1010200010D0602814D110E01DE019E045F008054B
:101030000FE045F010050CE045F0200509E045F013
:10104000400506E045F0800503E045F4807500E0CA
:1010500000BF00BF2068806920F0700021688861AF
:101060000420216848602DB1606A284360622046F0
:10107000FFF710FEBDE8F09F70B504460CB90120E3
:1010800070BD94F8200010B9204600F0AFF8206839
:10109000006840F001002168086000F07BFC054614
:1010A0000DE000F077FC401B0A2808D9606A40F484
:1010B00000306062052084F820000120E0E720680D
:1010C000406800F001000028EBD02068006820F0A4
:1010D00002002168086000F05DFC05460DE000F0AC
:1010E00059FC401B0A2808D9606A40F4003060624D
:1010F000052084F820000120C2E72068406800F045
:1011000002000028EBD1207E012806D1206800686B
:1011100040F080002168086005E02068006820F049
:10112000800021680860607E012806D12068006880
:1011300040F040002168086005E02068006820F069
:10114000400021680860A07E012806D12068006860
:1011500040F020002168086005E02068006820F069
:10116000200021680860E07E012806D12068006820
:1011700020F010002168086005E02068006840F059
:10118000100021680860207F012806D120680068CF
:1011900040F008002168086005E02068006820F041
:1011A000080021680860607F012806D12068006877
:1011B00040F004002168086005E02068006820F025
:1011C000040021680860D4E902010843216908434A
:1011D000616908436168491E08432168C8610020AD
:1011E0006062012084F82000002049E710B586B035
:1011F0000446142101A8FFF740F9274920688842D6
:1012000047D100BF002000902448006840F00070E3
:10121000224908600846006800F00070009000BF96
:1012200000BF00BF002000901C481038006840F04C
:1012300008001A49103908600846006800F00800E4
:10124000009000BF00BF0320019002200290002008
:101250000390032004900920059001A9104800F094
:1012600099FA00220521132000F028FC132000F039
:1012700011FC00220521142000F020FC142000F0B5
:1012800009FC00220521152000F018FC152000F0B3
:1012900001FC06B010BD0000006400404038024070
:1012A000000C02407047000010B504461749206842
:1012B00088422AD1164B174A00211748FFF7EBFC4A
:1012C00014480068A0F2012030B1012809D002289A
:1012D0000DD0032817D110E00D49104804F07EFA14
:1012E00012E00B490D48C01D04F078FA0CE00849E3
:1012F0000A480E3004F072FA06E005490748153036
:1013000004F06CFA00E000BF00BF10BD00640040B4
:10131000B00000209C0800207C030020680800200A
:1013200070477047704770B5044694F82000012854
:1013300022D1022084F820002068006820F00100FB
:101340002168086000F026FB05460DE000F022FB56
:10135000401B0A2808D9606A40F40030606205200A
:1013600084F82000012070BD2068406800F0010072
:101370000028EBD16062F6E7606A40F4002060620A
:101380000120F0E77047704770477047704770471B
:10139000704770B50446A56D00F0FCFA064694F857
:1013A0003500022808D08020606500BF002084F846
:1013B000340000BF012070BD2068006820F01600D6
:1013C000216808602068406920F080002168486139
:1013D000206C08B9A06C28B12068006820F00800D3
:1013E000216808602068006820F00100216808601A
:1013F00010E000F0CFFA801B05280BD92020606593
:10140000032084F8350000BF002084F8340000BFBA
:101410000320D0E72068006800F001000028E8D130
:1014200094F85C103F208840A860012084F83500C3
:1014300000BF002084F8340000BF00BFBBE70146B6
:1014400091F83500022803D08020486501207047BC
:10145000052081F835000868006820F001000A685E
:1014600010600020F3E70000F8B50446002000906B
:101470008C4800684FF41651B0FBF1F7A56D2E684B
:1014800094F85C1008208840304098B120680068CB
:1014900000F0040070B12068006820F004002168AA
:1014A000086094F85C1008208840A860606D40F0E7
:1014B0000100606594F85C1001208840304068B1FC
:1014C0002068406900F0800040B194F85C10012071
:1014D0008840A860606D40F00200606594F85C1080
:1014E00004208840304068B12068006800F00200A5
:1014F00040B194F85C1004208840A860606D40F012
:101500000400606594F85C1010208840304078B387
:101510002068006800F0080050B394F85C101020B8
:101520008840A8602068006800F4802080B12068AE
:10153000006800F4002028B9206CC8B12046216C56
:10154000884715E0A06C98B12046A16C88470FE051
:101550002068006800F4807028B92068006820F0D6
:10156000080021680860206C10B12046216C884773
:1015700094F85C10202088403040002865D0206816
:10158000006800F0100000285FD094F85C10202064
:101590008840A86094F83500052828D120680068A4
:1015A00020F01600216808602068406920F0800063
:1015B00021684861206C08B9A06C28B120680068D7
:1015C00020F008002168086094F85C103F208840F3
:1015D000A860012084F8350000BF002084F83400A2
:1015E00000BF206D10B12046216D8847F8BD2068EE
:1015F000006800F4802080B12068006800F40020BA
:1016000028B9606C10B12046616C88471DE0E06B22
:10161000D8B12046E16B884717E02068006800F4E5
:10162000807068B92068006820F0100021680860A8
:10163000012084F8350000BF002084F8340000BF8A
:10164000E06B10B12046E16B8847606D38B3606D88
:1016500000F00100F0B1052084F835002068006832
:1016600020F001002168086000BF0098401C009035
:10167000B84200D905E02068006800F001000028A9
:10168000F3D100BF012084F8350000BF002084F8AA
:10169000340000BFE06C10B12046E16C884700BF09
:1016A000A4E70000180000202DE9F04104460025C1
:1016B00000F070F9074614B90120BDE8F081606AB6
:1016C00000B100BF022084F8350000BF002084F87C
:1016D000340000BF2068006820F001002168086025
:1016E0000AE000F057F9C01B052805D920206065E5
:1016F000032084F83500E0E72068006800F001006E
:101700000028EED12068056821480540D4E9010190
:101710000843E16808432169084361690843A169F6
:101720000843E1690843216A08430543606A0428C5
:1017300003D1D4E90B010843054320680560206804
:10174000456925F00705606A0543606A04280DD1E4
:10175000A06A0543E06A48B12046FFF7E3F828B1E4
:1017600040206065012084F83500A6E720684561C7
:101770002046FFF7BDF8064694F85C103F208840ED
:10178000B06000206065012084F83500002094E7F7
:101790003F8010F0F8B502460B46002500240020DB
:1017A0000021D6E0012606FA01F51E6806EA0504C6
:1017B000AC4274D11E7906F00306012E04D01E79C6
:1017C00006F00306022E13D190684F000326BE4098
:1017D000B0434F00DE68BE40304390605068012641
:1017E0008E40B0431E79C6F300168E4030435060E1
:1017F0001E7906F00306032E09D0D0684F00032699
:10180000BE40B0434F009E68BE403043D0601E795A
:1018100006F00306022E13D1CF0802F1200656F877
:1018200027004E07F70E0F26BE40B0434F07FF0EAE
:101830001E69BE403043CF0802F1200646F827005B
:1018400010684F000326BE40B0431E7906F0030621
:101850004F00BE40304310605E6806F44036002EF4
:1018600076D000BF002600963C4E366846F480468F
:101870003A4F3E603E46366806F48046009600BF0A
:1018800000BF374E8F0856F827008E07370F0F26F8
:10189000BE40B043334EB24202D1002624E057E0AE
:1018A000314EB24201D101261EE0304EB24201D18A
:1018B000022619E02E4EB24201D1032614E02D4E2D
:1018C000B24201D104260FE02B4EB24201D10526CF
:1018D0000AE02A4EB24201D1062605E0284EB24265
:1018E00001D1072600E008268F073F0FBE40304396
:1018F0001B4E8F0846F82700224E3068A0435E68D2
:1019000006F4801606B120431E4E3060361D306846
:10191000A0435E6806F4001606B12043194E361D3A
:101920003060184E361F3068A0435E6806F40036FB
:1019300006B12043134E361F3060361F3068A04377
:101940005E6806F4803606B120430E4E083E3060D5
:10195000491C1029FFF426AFF8BD000044380240AE
:101960000838014000000240000402400008024024
:10197000000C024000100240001402400018024017
:10198000001C0240083C01400AB1816101E00B04E7
:101990008361704701480068704700000C00002018
:1019A0000348006803490978084401490860704702
:1019B0000C0000201400002010B50D48006840F411
:1019C00000700B4908600846006840F480600860B9
:1019D0000846006840F480700860032000F0ACF80E
:1019E0000F2000F007F800F02BF8002010BD0000D9
:1019F000003C024070B504460E4800784FF47A71FE
:101A0000B1FBF0F00C490968B1FBF0F5284600F095
:101A10001FFE08B1012070BD102C07D20022214604
:101A2000501E00F04BF80548046001E00120F2E789
:101A30000020F0E714000020180000201000002013
:101A400008B500BF002000901148006840F48040B5
:101A50000F4908600846006800F48040009000BF0D
:101A600000BF00BF00200090081F006840F08050B9
:101A7000091F08600846006800F08050009000BF11
:101A800000BF00220F21901E00F018F808BD0000D2
:101A9000443802400146084600280DDB00BF00BF65
:101AA00000F01F0301229A4043099B0003F1E02349
:101AB000C3F8002100BF00BF00BF70472DE9F05FF1
:101AC00080460D461646002703F03EF80746394685
:101AD0002A46334601F00700C0F1070ABAF1040FA5
:101AE00002D94FF0040A01E0C0F1070AD14600F123
:101AF000040ABAF1070F02D24FF0000A01E0A0F188
:101B0000030AD4464FF0010A0AFA09FAAAF1010AB7
:101B10000AEA020A0AFA0CFA4FF0010B0BFA0CFB64
:101B2000ABF1010B0BEA030B4AEA0B0421464046DA
:101B300003F012F8BDE8F09F00BF00F00702064B6B
:101B400019684FF6FF031940044B0B4343EA022187
:101B5000014B196000BF70470CED00E00000FA0572
:101B600070B504460D460CB9012070BD5848006898
:101B700000F00700A84209D255490D7008460068D8
:101B800000F00700A84201D00120EEE7207800F025
:101B9000020002281DD1207800F00400042805D19D
:101BA0004C48006840F4E0504A490860207800F052
:101BB0000800082805D14748006840F460404549BE
:101BC00008604448006820F0F000A16808434149DB
:101BD0000860207800F00100A8B36068012807D1F0
:101BE0003C4808380068C0F34040B8B90120BCE761
:101BF0006068022802D06068032807D13548083899
:101C00000068C0F3406048B90120AEE731480838A9
:101C10000068C0F3400008B90120A6E72D4800681D
:101C200020F00300616808432A490860FFF7B2FE0C
:101C3000064609E0FFF7AEFE801B41F2883188427C
:101C400002D9032091E707E02248006800F00C0069
:101C50006168B0EB810FEDD11D48006800F007000E
:101C6000A84209D91A490D700846006800F007001B
:101C7000A84201D0012078E7207800F00400042871
:101C800007D11448006820F4E050E1680843114986
:101C90000860207800F00800082808D10D48006886
:101CA00020F46040216940EAC1000A49086000F060
:101CB0003FF808490968C1F30311074A515CC8405D
:101CC0000649086006480068FFF794FE00204CE7CC
:101CD000003C024008380240F0790008180000205B
:101CE0001000002001480068704700001800002024
:101CF00000B5FFF7F7FF04490968C1F38221034AE1
:101D0000515CC84000BD000008380240007A00085D
:101D100000B5FFF7E7FF04490968C1F34231034A00
:101D2000515CC84000BD000008380240007A00083D
:101D30002DE9F047002400250026A146254800682B
:101D400000F00C0020B1042805D008283AD105E0A5
:101D5000DFF8849039E0DFF8849036E01D48001FFA
:101D6000006800F03F041B48001F006800F480007A
:101D700078B11A481749091F0968C1F38811A0FBF7
:101D800001700146224600233846FEF7CDFA05468B
:101D90000EE011480F49091F0968C1F38811A0FB23
:101DA00001700146224600233846FEF7BDFA05467B
:101DB0000848001F0068C0F30140401C4600B5FB06
:101DC000F6F902E0DFF8109000BF00BF4846BDE81A
:101DD000F0870000083802400024F400001BB70020
:101DE000F8B504460CB90120F8BD207800F00100D8
:101DF000002874D0F948006800F00C0004280DD0C9
:101E0000F648006800F00C00082813D1F348001FC2
:101E1000006800F48000B0F5800F0BD1EF4808385F
:101E20000068C0F34040002859D06068002856D1AF
:101E30000120D9E700BF6068B0F5803F08D1E748CE
:101E40000838006840F48030E449083908601EE032
:101E50006068B0F5A02F0DD1E0480838006840F464
:101E60008020DE49083908600846006840F4803068
:101E700008600CE0D9480838006820F48030D74961
:101E8000083908600846006820F48020086000BF18
:101E9000606890B1FFF77EFD054606E0FFF77AFD2A
:101EA000401B642801D903209EE7CC48083800680D
:101EB000C0F340400028F1D011E0FFF76BFD05466C
:101EC00006E0FFF767FD401B642801D903208BE77C
:101ED000C24808380068C0F340400028F1D120789B
:101EE00000F0020002285FD1BC48006800F00C003E
:101EF00058B1BA48006800F00C0008281CD1B74857
:101F0000001F006800F48000B0B9B44808380068C9
:101F1000C0F3400020B1E068012801D0012063E750
:101F2000AE480838006820F0F800216940EAC10096
:101F3000AA490839086037E0E06800B30120A849E1
:101F40000860FFF727FD054606E0FFF723FD401B6D
:101F5000022801D9032047E7A04808380068C0F3E9
:101F600040000028F1D09D480838006820F0F800B3
:101F7000216940EAC10099490839086014E000204D
:101F800097490860FFF706FD054606E0FFF702FDEA
:101F9000401B022801D9032026E790480838006832
:101FA000C0F340000028F1D1207800F00800082894
:101FB0002CD16069A8B101208A490860FFF7EAFCCA
:101FC000054606E0FFF7E6FC401B022801D9032086
:101FD0000AE782486C300068C0F340000028F1D066
:101FE00014E000207F490860FFF7D4FC054606E0B6
:101FF000FFF7D0FC401B022801D90320F4E6774804
:102000006C300068C0F340000028F1D1207800F067
:102010000400042870D1002770483830006800F0B0
:10202000805090B900BF002000906C4838300068A4
:1020300040F080506949383108600846006800F077
:102040008050009000BF00BF01276748006800F47F
:102050008070B0B96448006840F4807062490860DC
:10206000FFF798FC054606E0FFF794FC401B0228AA
:1020700001D90320B8E65C48006800F480700028AD
:10208000F2D000BFA068012808D154486830006829
:1020900040F001005149683108601DE0A068052842
:1020A0000DD14E486830006840F004004B4968315B
:1020B00008600846006840F0010008600CE04748EE
:1020C0006830006820F00100444968310860084623
:1020D000006820F00400086000BFA068A8B1FFF706
:1020E00059FC054609E0FFF755FC401B41F28831D9
:1020F000884202D9032077E626E038486830006835
:10210000C0F340000028EED013E0FFF743FC054683
:1021100008E0FFF73FFC401B41F28831884201D9BB
:10212000032061E62D4868300068C0F340000028B5
:10213000EFD1012F07D129483830006820F08050B6
:1021400026493831086000BFA069002845D02348DF
:10215000006800F00C0008285DD0A069022845D175
:1021600000201F490866FFF715FC054606E0FFF74B
:1021700011FC401B022801D9032035E61748083816
:102180000068C0F340600028F1D1D4E9070108439A
:10219000616A40EA81110122A06AC2EB500041EA63
:1021A00000412C20005D41EA00600C49091F0860D5
:1021B00001200B490866FFF7EDFB054606E0FFF737
:1021C000E9FB401B022801D903200DE6034808382B
:1021D0000068C0F340600028F1D049E008380240B0
:1021E00000004742800E4742007000400020214915
:1021F0000866FFF7CFFB054606E0FFF7CBFB401B69
:10220000022801D90320EFE51B480068C0F34060B5
:102210000028F2D12CE0A069012800D1E4E516489D
:10222000001D0668A069012820D006F48001E0693D
:1022300081421BD106F03F01206A814216D147F648
:10224000C0703040616AB0EB811F0FD106F440319D
:102250000122A06AC2EB5000B1EB004F06D106F09C
:1022600070612C20005DB1EB006F01D00120BBE557
:102270000020B9E5000047420038024010B504468E
:102280000CB9012010BD606A38B96068B0F5827F72
:1022900000D105E00021E16102E0002121616161DE
:1022A0000021A16294F8510028B9002084F8500060
:1022B000204600F047F8022084F8510020680068AA
:1022C00020F0400021680860A08800F48270218915
:1022D00001F404410843A18901F400610843217C11
:1022E00001F002010843217D01F001010843218B27
:1022F00001F400710843217F01F0380108432021D7
:10230000095D01F080010843218D01F4005108436B
:10231000216808600421A06901EA104094F82410A3
:1023200001F010010843216848602068C06920F46A
:1023300000602168C86100206065012084F85100B8
:1023400000209FE710B586B00446142101A8FEF7CF
:1023500094F82949206888424CD100BF00200090A1
:102360002648006840F48050244908600846006808
:1023700000F48050009000BF00BF00BF002000901C
:102380001E481438006840F002001C4914390860E7
:102390000846006800F00200009000BF00BF00BFC8
:1023A000002000900846006840F0010008600846E0
:1023B000006800F00100009000BF00BF18200190ED
:1023C0000220029000200390032004900520059035
:1023D00001A90B48FFF7DEF980200190022002904E
:1023E00000200390032004900520059001A90548D2
:1023F000FFF7D0F906B010BD00300140443802406C
:1024000000040240000002402DE9FE4F04460F4642
:1024100090461D460C9E01200190FFF7BBFA8146B5
:1024200094F851B060680290AA46BBF1010F0BD03E
:102430000298B0F5827F04D1A06810B9BBF1040FF7
:1024400002D00220BDE8FE8F1FB1B8F1000F00D00E
:102450000DB90120F6E700BF94F85000012801D122
:102460000220EFE7012084F8500000BF94F85100EB
:10247000042802D0052084F8510000206065C4F8CB
:102480003880E587A5872763E586A5862064606494
:102490002068006800F04000402805D020680068EF
:1024A00040F0400021680860E068B0F5006F52D14C
:1024B000606810B1BAF1010F09D1206B0088216862
:1024C000C860206B801C2063E08E401EE0863BE0ED
:1024D0002068806800F00200022810D1E08E70B100
:1024E000019801280BD1206B00882168C860206BFF
:1024F000801C2063E08E401EE08600200190206852
:10250000806800F0010068B1E08F58B12068C068B1
:10251000A16B0880A06B801CA063E08F401EE08749
:1025200001200190FFF736FAA0EB0900B0420BD36F
:10253000701C48B1012084F8510000BF002084F8CD
:10254000500000BF03207DE7E08E0028C0D1E08F5F
:102550000028BDD152E0606810B1BAF1010F09D175
:10256000206B007821680873206B401C2063E08E8C
:10257000401EE0863CE02068806800F002000228EF
:1025800010D1E08E70B1019801280BD1206B00783A
:1025900021680873206B401C2063E08E401EE0869B
:1025A000002001902068806800F0010068B1E08F91
:1025B00058B12068C068A16B0870A06B401CA06374
:1025C000E08F401EE08701200190FFF7E3F9A0EBC8
:1025D0000900B04201D3701C00B94EB9012084F843
:1025E000510000BF002084F8500000BF032029E7FD
:1025F000E08E0028BFD1E08F0028BCD14A4631468A
:10260000204601F07DFC40B12020606500BF002025
:1026100084F8500000BF012014E7A06850B900BF43
:10262000002000902068C0680090206880680090BA
:1026300000BF00BF012084F8510000BF002084F8D3
:10264000500000BF606D08B10120FBE60020F9E6F4
:1026500070B504462546681EB0F1807F01D3012085
:102660000FE0681E4FF0E02148610F214FF0FF306E
:1026700002F072FA00204FF0E02188610720086123
:10268000002070BD7047704730B502460B4600BF52
:1026900092F83C00012801D1022030BD012082F8CF
:1026A0003C0000BF022082F83D00106844681068BA
:1026B000816824F070041868044310684460184D61
:1026C0001068A8421BD01068B0F1804F17D0154D8C
:1026D0001068A84213D0144D1068A8420FD0134DB3
:1026E0001068A8420BD0124D1068A84207D0114DB7
:1026F0001068A84203D0104D1068A84205D121F0FF
:1027000080015868014310688160012082F83D0013
:1027100000BF002082F83C0000BF00BFBDE7000002
:10272000000001400004004000080040000C004090
:1027300000040140004001400018004010B504466C
:102740000CB9012010BD94F83D0028B9002084F890
:102750003C00204600F026F8022084F83D00211DB0
:10276000206801F0F9FC012084F8460000BF84F8DD
:102770003E0001213F2001554020015541200155D7
:1027800000BF00BF012084F84200432001554420CF
:1027900001554520015500BF012084F83D0000206F
:1027A000D0E7000038B504462068B0F1804F18D15A
:1027B00000BF002000901648006840F00100144956
:1027C00008600846006800F00100009000BF00BFEC
:1027D000002205211C20FFF771F91C20FFF75AF990
:1027E00015E00C492068884211D100BF00200090FC
:1027F0000748001D006840F400300549091D0860C5
:102800000846006800F40030009000BF00BF38BDEB
:102810004038024000440140014691F83D00012843
:1028200001D001207047022081F83D000868C0688F
:1028300040F001000B68D8601A4B086898421BD022
:102840000868B0F1804F17D0174B0868984213D032
:10285000164B086898420FD0154B086898420BD069
:10286000144B0868984207D0134B0868984203D06D
:10287000124B086898420CD10868806800F0070283
:10288000062A0CD00868006840F001000B68186048
:1028900005E00868006840F001000B68186000203F
:1028A000C0E70000000001400004004000080040B4
:1028B000000C0040000401400040014000180040AE
:1028C0002DE9F04104460D46002700BF94F83C0076
:1028D000012802D10220BDE8F081012084F83C00EB
:1028E00000BF022084F83D002068866826F0770645
:1028F00026F47F46206886602868502833D00CDC98
:10290000202850D004DC00284BD0102851D149E0B9
:10291000302849D040284CD139E060282DD070288B
:1029200007D0B0F5805F03D0B0F5005F41D10DE076
:1029300041E0D5E902136A68206801F07DFC206857
:10294000866846F077062068866034E0D5E9021391
:102950006A68206801F070FC2068806840F480405C
:102960002168886027E0EA686968206801F054FD02
:102970005021206801F06BFC1DE0EA68696820685E
:1029800001F05DFD6021206801F061FC13E0EA6860
:102990006968206801F040FD4021206801F057FC83
:1029A00009E000BF00BF00BF2968206801F04FFCAC
:1029B00001E0012700BF00BF012084F83D0000BFF7
:1029C000002084F83C0000BF384684E7704770B5AB
:1029D00004462068C5682068066906F002000228DF
:1029E00019D105F00200022815D1401F21680861A5
:1029F000012020772068806900F0030018B120468C
:102A0000FFF7E4FF05E0204600F0C8F8204600F09C
:102A10007CF90020207706F00400042819D105F085
:102A20000400042815D1C0432168086102202077E2
:102A30002068806900F4407018B12046FFF7C6FF97
:102A400005E0204600F0AAF8204600F05EF90020DC
:102A5000207706F00800082819D105F0080008289A
:102A600015D1C04321680861042020772068C0691F
:102A700000F0030018B12046FFF7A8FF05E020464C
:102A800000F08CF8204600F040F90020207706F096
:102A90001000102819D105F01000102815D1C043DE
:102AA00021680861082020772068C06900F4407020
:102AB00018B12046FFF78AFF05E0204600F06EF8C7
:102AC000204600F022F90020207706F0010048B1EE
:102AD00005F0010030B16FF0010021680861204667
:102AE00000F014F906F08000802809D105F080007C
:102AF000802805D1C043216808612046FFF7C2FD48
:102B000006F04000402809D105F04000402805D1DA
:102B1000C04321680861204600F008F906F0200053
:102B2000202809D105F02000202805D1C0432168C4
:102B300008612046FFF7A7FD70BD000010B586B004
:102B40000446142101A8FDF798FC11492068884229
:102B50001CD100BF002000900E48006840F020000B
:102B60000C4908600846006800F02000009000BF93
:102B700000BF4020019002200290002003900490AA
:102B80000320059001A90448FEF704FE06B010BD1D
:102B900000440140303802400014024070472DE9E3
:102BA000F04104460D461646002700BF94F83C004D
:102BB000012802D10220BDE8F081012084F83C0008
:102BC00000BF36B1042E1BD0082E31D00C2E5ED1A2
:102BD00045E02946206801F043FB2068806940F009
:102BE0000800216888612068806920F0040021685D
:102BF000886120688069296908432168886148E004
:102C00002946206801F064FB2068806940F4006078
:102C1000216888612068806920F48060216888616B
:102C200020688069296940EA01202168886130E0D4
:102C30002946206801F08AFB2068C06940F008003E
:102C40002168C8612068C06920F004002168C8615B
:102C50002068C069296908432168C86119E02946CC
:102C6000206801F0AFFB2068C06940F40060216873
:102C7000C8612068C06920F480602168C86120684C
:102C8000C069296940EA01202168C86101E0012783
:102C900000BF00BF00BF002084F83C0000BF3846E2
:102CA00089E710B504460CB9012010BD94F83D0029
:102CB00028B9002084F83C00204600F025F80220C6
:102CC00084F83D00211D206801F046FA012084F8B7
:102CD000460000BF84F83E0001213F2001554020FE
:102CE00001554120015500BF00BF012084F842007A
:102CF00043200155442001554520015500BF0120C6
:102D000084F83D000020D0E77047704710B50446B6
:102D10000548844206D100F0BDFD6FF00100024974
:102D20000968086110BD0000FC030020704770476F
:102D3000704700002DE9F84F0446206805682068B8
:102D4000C668206847694FF00009CA4605F00F09B8
:102D5000B9F1000F0AD105F0200038B106F02000CB
:102D600020B1204601F0CEFBBDE8F88FB9F1000F8D
:102D70007CD007F0010018B906F49070002875D0D7
:102D800005F0010030B106F4807018B1606C40F0BD
:102D90000100606405F0040030B107F0010018B1D3
:102DA000606C40F00200606405F0020030B107F092
:102DB000010018B1606C40F00400606405F0080088
:102DC00048B106F0200010B907F0010018B1606C9E
:102DD00040F008006064606C002846D005F02000D8
:102DE00028B106F0200010B1204601F08BFB2068CE
:102DF0004069C0F3801A606C00F0080010B9BAF1A5
:102E0000000F2DD0204601F037FB2068406900F00C
:102E10004000402820D100BF00BF2168143151E894
:102E2000001F21F040002168143141E80002002A0F
:102E3000F3D100BFE06B50B17F48E16B0865E06BF8
:102E4000FEF7FDFA88B1E06B016D88470DE0204682
:102E5000FFF76EFF09E009E02046FFF769FF04E095
:102E60002046FFF765FF002060647DE7206B0128A6
:102E700078D105F01000002874D006F0100000286A
:102E8000FAD000BF00200090206800680090206801
:102E90004068009000BF00BF2068406900F040001B
:102EA000402870D1E06B006840681FFA80F8B8F1E4
:102EB000000F58D0A08D404555DDA4F82E80E06B62
:102EC000C069B0F5807F43D000BF00BF21680C31DE
:102ED00051E8001F21F4807021680C3141E80002A4
:102EE000002AF3D100BF00BF00BF2168143151E8B0
:102EF000001F21F001002168143141E80002002A7E
:102F0000F3D100BF00BF00BF2168143151E8001F9A
:102F100021F040002168143141E80002002AF3D179
:102F200000BF202084F842000020206300BF00BFC3
:102F300021680C3151E8001F21F0100021680C318C
:102F400041E80002002AF3D100BFE06BFEF721FA4E
:102F500002206063A08DE28D801A81B22046FFF7C7
:102F6000E6FE0EE052E0A08D40450AD1E06BC0695C
:102F7000B0F5807F05D102206063A18D2046FFF768
:102F8000D6FEF1E6FFE7A08DE18D401A1FFA80F82A
:102F9000E08DD0B3B8F1000F37D000BF00BF21687B
:102FA0000C3151E8001F21F4907021680C3141E888
:102FB0000002002AF3D100BF00BF00BF2168143116
:102FC00051E8001F21F001002168143141E800029E
:102FD000002AF3D100BF202084F8420000202063A3
:102FE00000BF00BF21680C3151E8001F21F0100024
:102FF00021680C3141E80002002AF3D100BF022011
:10300000606341462046FFF792FEADE605F0800082
:1030100030B106F0800018B1204601F007FCA3E6AD
:1030200005F0400030B106F0400018B1204601F034
:1030300059FA99E600BF97E66744000810B50446C0
:103040000CB9012010BDA06900B100E000BF94F8E8
:10305000410028B9002084F84000204600F02AF8FA
:10306000242084F841002068C06820F400502168C2
:10307000C860204601F0C4FA2068006920F490403E
:10308000216808612068406920F02A0021684861B1
:103090002068C06840F400502168C8600020606467
:1030A000202084F8410084F842000020606300BFC3
:1030B000C8E7000010B586B00446142101A8FDF74A
:1030C000DCF95D492068884256D100BF002000909D
:1030D0005A48006840F48020584908600846006853
:1030E00000F48020009000BF00BF00BF00200090CF
:1030F00052481038006840F0040050491039086008
:103100000846006800F00400009000BF00BF4FF4C4
:103110004060019002200290002003900320049060
:103120000720059001A94648FEF734FB454846496B
:1031300008604FF000604860002143488160C16032
:103140004FF480610161002141618161C1610162CF
:103150004162FEF7A9FA08B1FDF73AFC00BF3A4810
:10316000E063846300BF002205212720FEF7A6FC50
:103170002720FEF78FFC5CE034492068884258D154
:1031800000BF002000902D48001D006840F0200086
:103190002A49091D08600846006800F020000090D8
:1031A00000BF00BF00BF0020009024481038006816
:1031B00040F040002149103908600846006800F0DE
:1031C0004000009000BF00BF4FF4844001900220F7
:1031D000029000200390032004900820059001A98C
:1031E0001B48FEF7D7FA1B481B4908604FF02060C8
:1031F00048604021184881600021C1604FF480611F
:103200000161002141618161C16101624162FEF79A
:103210004BFA08B1FDF7DCFB00BF0F48A0638463E5
:1032200000BF002205214720FEF748FC4720FEF79B
:1032300031FC06B010BD000000480040403802409C
:1032400000080240286002401C05002000140140D4
:1032500000180240A06402407C05002070472DE960
:10326000F84F04460E46174699464FF0000A94F868
:103270004100202850D106B117B90120BDE8F88FD0
:1032800000206064212084F84100FEF783FB824621
:10329000A784E784A068B0F5805F04D1206910B9E5
:1032A0000025B04602E035464FF000081EE05346C8
:1032B000002280212046CDF8009001F0E7FA20B1ED
:1032C000202084F841000320D8E745B9B8F8000071
:1032D000C0F308002168486008F1020803E028787C
:1032E000216848606D1CE08C401EE084E08C002862
:1032F000DDD15346002240212046CDF8009001F058
:10330000C5FA20B1202084F841000320B6E7202030
:1033100084F841000020B1E70220AFE7704700BF0A
:10332000FEE7000000B52DED068B024692ED000A87
:10333000F0EE407A92ED010AB0EE405A92ED020AA8
:10334000F0EE405A92ED030AB0EE406A92ED040AA4
:10335000F0EE406A92ED050AB0EE407A784890EDC2
:10336000000AB0EE404A90ED010AF0EE402A90EDDE
:10337000020AB0EE403A90ED030AF0EE403A67EEF2
:10338000A70A45EE050A45EEA50AB0EE600A02F06E
:1033900007FAF0EE404A27EEA40AF0EE407A25EE56
:1033A000240AB0EE405A25EEA40AF0EE405A22EE6E
:1033B000A30A04EE430AF0EE000A20EE200AB0EE63
:1033C000408A23EE230A04EE220AF0EE000A20EEE1
:1033D000200AF0EE408A24EE040A02EEE20A03EE2E
:1033E000430A03EEA30AB0EE409A25EE090A05EE61
:1033F000E80AF0EE409A25EE880A07EEC90AB0EE18
:1034000040AA27EEA80A05EE480AF0EE40AA4D4869
:1034100090ED000ADFED4C0A00EEA90A80ED000AEB
:103420004A4890ED000ADFED480A00EE8A0A80ED76
:10343000000A474890ED000ADFED430A00EEAA0AB1
:1034400080ED000A3F4890ED000AF3EE090A00EE15
:10345000A90A30EE060AB0EE406A3C4890ED000A38
:10346000F3EE090A00EE8A0A30EE260AF0EE406A10
:10347000374890ED000AF3EE090A00EEAA0A30EE92
:10348000070AB0EE407AB1EE620A20EE060A03EEB9
:10349000660A03EEC70A9FED2F1AF0EE440A40EECB
:1034A000010AB0EE604A24EE060A03EE070A03EEB4
:1034B000E60A9FED281AF0EE620A40EE010AF0EEED
:1034C000602A24EE260A02EEC70A03EE860A9FED62
:1034D000211AF0EE430A40EE010AB0EE603A24EE03
:1034E000070A02EEA60A03EE460A9FED1A1AF0EE4C
:1034F000630A40EE010AF0EE603A64EE040A42EE1E
:10350000A20A43EE030A43EEA30AB0EE600A02F0F9
:1035100047F9F0EE404A24EE240A094880ED000AFB
:1035200022EEA40A80ED010A23EE240A80ED020AAD
:1035300023EEA40A80ED030ABDEC068B00BD00005B
:1035400058000020680000200AD7A33B6C00002030
:10355000700000200AD7233B00B5274890ED000AF1
:103560002648D0ED030A30EE600A234880ED000AB9
:1035700090ED010A2148D0ED040A30EE600A1E48A1
:1035800080ED010A90ED020A1C48D0ED050A30EEEC
:10359000600A194880ED020A194890ED000A1748A0
:1035A000D0ED000A30EE600A154880ED000A90ED7B
:1035B000010A1248D0ED010A30EE600A104880ED91
:1035C000010A90ED020A0D48D0ED020A30EE600AC1
:1035D0000B4880ED020A0B48007800F0010050B162
:1035E0000649094800F08CF828B10648007820F018
:1035F00001000449087000BDDC0500201806002009
:10360000E805002074000020F405002010B52DED21
:10361000048B344A34493548FDF70EF8324890EDB2
:10362000000ADFED330A80EE201A324880ED001ADE
:103630002D4890ED010ADFED2E0A80EE201A2D486C
:1036400080ED011A284890ED020ADFED290A80EE8C
:10365000201A284880ED021A244890ED000A10EE46
:10366000101A084604F01AF941EC190B9FED220BD1
:1036700053EC102B03F052FE41EC180B03F01CFC32
:103680001C49C860194890ED010A10EE101A08464E
:1036900004F004F941EC190B9FED170B53EC102BC0
:1036A00003F03CFE41EC180B03F006FC11490861E5
:1036B0000E4890ED020A10EE101A084604F0EEF8DB
:1036C00041EC190B9FED0C0B53EC102B03F026FE75
:1036D00041EC180B03F0F0FB06494861BDEC048B8C
:1036E00010BD000054000020E8050020DC0500208B
:1036F00000000045F4050020D508FD4CBD6E513F8B
:1037000002465C48008800BB9FED5B0A5B4880ED89
:10371000000A9FED590A5A4880ED000A9FED560AAB
:10372000584880ED000A9FED540A574880ED000A82
:103730009FED510A554880ED000A9FED4F0A54480D
:1037400080ED000A01204B4B188092ED000A4E4894
:10375000D0ED000A30EE200A80ED000A92ED010A59
:103760004A48D0ED000A30EE200A80ED000A92EDC2
:10377000020A4748D0ED000A30EE200A80ED000A28
:1037800092ED030A3D48D0ED000A30EE200A80EDAC
:10379000000A92ED040A3A48D0ED000A30EE200A01
:1037A00080ED000A92ED050A3648D0ED000A30EEB1
:1037B000200A80ED000A2F480088B0F57A7F52D1A8
:1037C0003148D0ED000A2B48008800EE100AB8EE10
:1037D000400A80EE801A81ED001A2C48D0ED000AD4
:1037E0002448008800EE100AB8EE400A80EE801AE5
:1037F00081ED011A2648D0ED000A1E48008800EE2F
:10380000100AB8EE400A80EE801A81ED021A1B48B9
:10381000D0ED000A1748008800EE100AB8EE400A02
:1038200080EE801A81ED031A1548D0ED000A114888
:10383000008800EE100AB8EE400A80EE801A81ED92
:10384000041A1048D0ED000A0A48008800EE100A59
:10385000B8EE400A80EE801A81ED051A0020054B73
:1038600018800120704703480088401C014B1880D5
:103870000020F7E790000020000000007800002002
:103880007C000020800000208400002088000020B0
:103890008C00002010B52DED0C8BFFF7B7FEFFF765
:1038A0005BFE6448FFF73EFD634890ED010AF8EEC9
:1038B000000A20EE200AD0ED030A20EE200AD0ED07
:1038C000000AB0EE001A60EE810A90ED021A00EED6
:1038D000810A10EE101A084603F0E0FF41EC1A0BC3
:1038E000B0EE4A0AF0EE6A0A01F04AF9B0EE409AE8
:1038F000F0EE609A9FED510B53EC102B51EC190B2D
:1039000003F00CFD41EC180B03F0D6FA4D490860AA
:10391000494890ED010AF8EE000A20EE200AD0EDA9
:10392000010A20EE200AD0ED020AB0EE001A60EE85
:10393000810A90ED021A00EEC10AF7EE000A30EE9D
:10394000200A10EE101A084603F0A8FF41EC1B0BEA
:10395000394890ED020AF0EE000A20EE200AD0ED80
:10396000030A20EE200AD0ED000AB0EE001A60EE45
:10397000810A90ED011A00EE810A10EE101A084635
:1039800003F08CFF41EC180BB0EE4B1AF0EE6B1A03
:10399000B0EE480AF0EE680A01F00EFCB0EE40AA64
:1039A000F0EE60AA9FED250B53EC102B51EC1A0B97
:1039B00003F0B4FC41EC190B03F07EFA2149486096
:1039C0001C4890ED050A10EE101A084603F066FF39
:1039D00041EC1D0B9FED190B53EC102B03F09EFCDB
:1039E00041EC1C0B9FED180B53EC102B03F096FCD5
:1039F00041EC1B0B9FED160B53EC102B03F08EFCD0
:103A000041EC190B0F4890ED020A10EE101A08460F
:103A100003F044FF41EC1A0B53EC192B03F07EFA30
:103A200041EC180B03F048FA06498860BDEC0C8B9A
:103A300010BD0000F405002058000020AEB6627FE3
:103A4000D9A54C400C06002000000040E17A743FEC
:103A5000000000000000104010B50E480E4908603C
:103A60000320486000210C488160C1604FF41021A0
:103A700001614FF4001141610021017641768176A8
:103A8000C17601774177FDF7F7FA08B1FCF7A0FF9F
:103A900010BD0000006400407C03002008B500BF9A
:103AA000002000901648006840F480001449086027
:103AB0000846006800F48000009000BF00BF00BF0F
:103AC000002000900846006840F400100860084696
:103AD000006800F40010009000BF00BF0022052124
:103AE0000C20FDF7EBFF0C20FDF7D4FF0022052191
:103AF0004520FDF7E3FF4520FDF7CCFF08BD0000A2
:103B00003038024000B595B01C2212490EA8FCF7CF
:103B100082FC00210EA802F0F4F80F4908601C2274
:103B20000C491C3107A8FCF776FC002107A802F01D
:103B3000E8F80A4908601C22064938316846FCF753
:103B40006AFC0021684602F0DCF80549086015B0FF
:103B500000BD00009479000800000020040000204F
:103B60000800002000B587B0142102A8FCF785FCEE
:103B700000BF002001904948006840F040004749DC
:103B800008600846006800F04000019000BF00BFD8
:103B900000BF002001900846006840F00200086065
:103BA0000846006800F00200019000BF00BF00BF9F
:103BB000002001900846006840F0010008600846B7
:103BC000006800F00100019000BF00BF00BF0020AE
:103BD00001900846006840F0080008600846006848
:103BE00000F00800019000BF00BF00BF002001905E
:103BF0000846006840F0040008600846006800F0CD
:103C00000400019000BF00BF00BF002001900846E3
:103C1000006840F0800008600846006800F08000FE
:103C2000019000BF00BF00BF00200190084600685F
:103C300040F0200008600846006800F02000019075
:103C400000BF00BF002210211548FDF79DFE002295
:103C500001211448FDF798FE1020029001200390E6
:103C600000200490059002A90D48FDF793FD302037
:103C700002904FF4881003900020049002A90A4893
:103C8000FDF788FD0120029003900020049005902C
:103C900002A90448FDF77EFD07B000BD30380240A0
:103CA00000000240000402400008024010B50F4826
:103CB0000F4908604FF48270486000210C48816011
:103CC000C160022101610121416149028161382104
:103CD000C16100210162416281620A21C162FEF775
:103CE000CDFA08B1FCF774FE10BD000000300140B1
:103CF000A403002000B587B01C216846FCF7BDFB7B
:103D0000154816490860002048600021134881606A
:103D100041F22F11C160002101618161FEF70EFDAA
:103D200008B1FCF755FE0D48FEF7BBFF08B1FCF7E4
:103D30004FFE60200090002001900290049000222D
:103D400069460648FEF72BFF08B1FCF741FE034821
:103D5000FEF7F4FE07B000BD00440140440400201B
:103D600000B587B000200390049005900690019064
:103D700002904FF080401449086000204860002104
:103D80001148816041F22F11C16000210161816100
:103D9000FEF7D4FC08B1FCF71BFE4FF480500390F3
:103DA00003A90948FEF78CFD08B1FCF711FE0020BD
:103DB0000190029001A90448FEF766FC08B1FCF7E7
:103DC00007FE07B000BD0000FC03002010B50B4843
:103DD0000B4908600B484860002109488160C160B8
:103DE0004FF4806101610C21416100218161C16159
:103DF000FFF724F908B1FCF7EBFD10BD00480040C7
:103E00008C040020A086010010B50B480B49086007
:103E10004FF4E1304860002108488160C1600161D1
:103E20000C21416100218161C161FFF707F908B1EF
:103E3000FCF7CEFD10BD000000140140D4040020AA
:103E400000BFFEE711B980ED000A07E0012905D1A6
:103E5000D0ED000A70EE800AC0ED000A704700BF86
:103E6000FEE7000010B5234B1B685B6943F040037D
:103E7000204C246863611F4B1B68DB6843F0100310
:103E80001C4C2468E3601C4B1B681B6823F0010377
:103E9000194C2468236007E0174B1B681B6823F04C
:103EA0000103154C24682360134B1B681B6803F047
:103EB0000103002BF0D1114B0F4C2468A3600E4B73
:103EC0001B68D8600C4B1B6819610B4B1B685A6050
:103ED000094B1B681B6843F48023074C246823604C
:103EE000054B1B681B6843F00103034C24682360E7
:103EF00010BD00008C0400201C0500200448004078
:103F00007CB504460E461546334601220221204662
:103F1000009500F039F828B1606D40F02000606530
:103F200003207CBD164800681821B0FBF1F015494C
:103F3000B0FBF1F04FF47A71484301906068B0F53E
:103F4000827F0DD13346002280212046009500F06B
:103F50001BF898B1606D40F0200060650320E0E739
:103F600000BF019800B908E00198401E0190206848
:103F70008068C0F3C0100028F3D100BF0020D0E754
:103F80001800002040420F002DE9F84F04460D466E
:103F900090461E46DDF82890FDF7FCFCA0EB0900DA
:103FA000371AFDF7F7FC82462C480068C0F3CB3087
:103FB0007843009046E0701C002843D0FDF7EAFCEF
:103FC000A0EB0A00B84200D2A7BB2068406820F0EE
:103FD000E000216848606068B0F5827F0DD1A0687C
:103FE000B0F5004F03D0A068B0F5806F05D1206810
:103FF000006820F0400021680860A06AB0F5005F0A
:104000000DD100BF2068006820F4005021680860CE
:104010002068006840F400502168086000BF01205B
:1040200084F8510000BF002084F8500000BF032036
:10403000BDE8F88FFFE7009808B9002702E0009874
:10404000401E0090206880682840A84201D10120CD
:1040500000E000204045AED10020E9E71800002034
:1040600000BF012001F03CFEFBE710B5FDF798FC16
:1040700002F0E0FD012801D002F032FD10BD000089
:1040800000B593B0302107A8FCF7F7F9142102A876
:10409000FCF7F3F900BF002001902448006840F0CD
:1040A0008050224908600846006800F08050019066
:1040B00000BF00BF00BF002001901D48006840F411
:1040C00080401B4908600846006800F48040019069
:1040D00000BF00BF012007900004089002200D904F
:1040E00041050E9106210F91A821109102211191F5
:1040F0000421129107A8FDF773FE08B1FCF768FCD4
:104100000F20029002200390002004904FF4A05052
:1041100005904FF480500690052102A8FDF720FD80
:1041200008B1FCF755FC13B000BD00004038024058
:10413000007000400348006840F4700001490860C6
:104140007047000088ED00E010B50248FEF73FFC24
:1041500010BD0000FC03002010B502682B4B9842F4
:104160000ED0B0F1804F0BD0294B984208D0294B8C
:10417000984205D0284B984202D0284B984203D150
:1041800022F070024B681A43204B984220D0B0F1C5
:10419000804F1DD01E4B98421AD01E4B984217D00C
:1041A0001D4B984214D01D4B984211D01C4B984285
:1041B0000ED01C4B98420BD01B4B984208D01B4B87
:1041C000984205D01A4B984202D01A4B984203D11C
:1041D00022F44072CB681A4322F080034C6943EA10
:1041E00004028B68C3620B688362084B984202D05A
:1041F0000A4B984201D10B690363036843F004033F
:10420000036001234361026010BD00000000014013
:104210000004004000080040000C00400004014081
:1042200000400140004401400048014000180040A7
:10423000001C00400020004030B50C46816821F48D
:104240007F4142EA032525432943816030BD0A4668
:10425000816821F0700142F00703194381607047C3
:1042600030B5026A056A25F0010505624368846974
:1042700024F0700424F003040D682C4322F00202A1
:104280008D682A43104DA84200D103E00F4DA8428B
:1042900006D100BF22F00802CD682A4322F00402B2
:1042A000094DA84202D0094DA84207D123F48073DA
:1042B00023F400734D692B438D692B434360846164
:1042C0004D684563026230BD0000014000040140BA
:1042D00030B5026A056A25F01005056243688469F5
:1042E00024F4E04424F440740D6844EA052422F0E8
:1042F00020028D6842EA0512124DA84200D103E067
:10430000114DA84207D100BF22F08002CD6842EAD9
:10431000051222F040020B4DA84202D00A4DA842DD
:1043200009D123F4806323F400634D6943EA8503D4
:104330008D6943EA8503436084614D688563026249
:1043400030BD0000000001400004014030B5026AA9
:10435000056A25F4807505624368C46924F0700419
:1043600024F003040D682C4322F400728D6842EAA5
:104370000522124DA84200D103E0114DA84207D1F9
:1043800000BF22F40062CD6842EA052222F4806276
:104390000A4DA84202D00A4DA84209D123F4805305
:1043A00023F400534D6943EA05138D6943EA05136D
:1043B0004360C4614D68C563026230BD00000140C6
:1043C0000004014030B5036A056A25F48055056292
:1043D0004468C26922F4E04222F440720D6842EA65
:1043E000052223F400538D6843EA0533084DA842A3
:1043F00002D0084DA84204D124F480444D6944EA17
:1044000085144460C2614D680564036230BD0000DC
:10441000000001400004014030B50B461446026A1A
:10442000056A25F001050562816921F0F00141EA84
:10443000041122F00A021A438161026230BD30B5D4
:104440000B461446026A056A25F01005056281696B
:1044500021F4704141EA043122F0A00242EA031241
:104460008161026230BD70B50446A56B0020E8850D
:104470002846FEF75DFC70BD00BF00BF02680C322D
:1044800052E8002F22F4907102680C3242E80013C7
:10449000002BF3D100BF00BF00BF0268143252E806
:1044A000002F22F001010268143242E80013002BB1
:1044B000F3D100BF016B01290ED100BF00BF02681C
:1044C0000C3252E8002F22F0100102680C3242E850
:1044D0000013002BF3D100BF202180F842100021EF
:1044E0000163704710B504462068C06820F04000A2
:1044F0002168C860202084F841002046FEF70EFFA6
:10450000002010BDF8B504460025002694F84200AE
:10451000222873D1A068B0F5805F0BD1206948B91B
:10452000A66A20684068C0F308003080A06A801C3A
:10453000A06214E0A56AA068B0F5805F03D0A0680F
:1045400028B9206918B920684068287004E02068FC
:10455000406800F07F002870A06A401CA062E08DD7
:10456000401E80B2E085002846D12068C06820F057
:1045700020002168C8602068C06820F4807021682D
:10458000C8602068406920F001002168486120204F
:1045900084F8420000206063206B012826D10020AF
:1045A000206300BF00BF21680C3151E8001F21F0DB
:1045B000100021680C3141E80002002AF3D100BF4D
:1045C0002068006800F0100010280AD100BF002009
:1045D000009020680068009020684068009000BF4C
:1045E00000BFA18D2046FEF7A2FB02E02046FEF7A9
:1045F00035FE0020F8BD01E00020FBE70220F9E7CE
:104600002DE9F84F04462068006920F44050E16825
:104610000843216808612169A0680843616908436B
:10462000E169084300902068C06849F20C61884342
:10463000009908432168C8602068406920F44070F0
:10464000A16908432168486176492068884203D0FF
:1046500075492068884203D1FDF75AFB814602E084
:10466000FDF746FB8146E069B0F5004F6CD10220B2
:104670006168A0FB015003461920A9FB00700146A8
:104680002A463846FBF750FE6421B0FBF1F04FEAB2
:10469000001A02206168A0FB01510B461920A9FBFA
:1046A00000712A463846FBF73FFE834602206168C8
:1046B000A0FB015003461920A9FB00712A46384689
:1046C000FBF732FE6421B0FBF1F000EBC00101EB1F
:1046D0000010ABEB8000322101EBC0006421B0FB85
:1046E000F1F000F0F8000AEB400A02206168A0FB3C
:1046F000015003461920A9FB007001462A4638469E
:10470000FBF712FE834602206168A0FB01500346BE
:104710001920A9FB00712A463846FBF705FE6421E3
:10472000B0FBF1F000EBC00101EB0010ABEB80003F
:10473000322101EBC0006421B0FBF1F000F0070072
:104740005044216888606AE004206168A0FB015041
:1047500003461920A9FB007001462A463846FBF79C
:10476000E3FD824604206168A0FB01500346192046
:10477000A9FB007001462A463846FBF7D5FD6421A7
:10478000B0FBF1F000EBC00101EB0010AAEB8000E0
:10479000322101EB00106421B0FBF1F000F0F00ACF
:1047A00004206168A0FB017003461920A9FB005199
:1047B0003A462846FBF7B8FD6421B0FBF1F00AEB5E
:1047C000001A04206168A0FB01510B461920A9FBC7
:1047D00000712A463846FBF7A7FD8346042061682E
:1047E000A0FB015003461920A9FB007001462A4690
:1047F0003846FBF799FD6421B0FBF1F000EBC001F6
:1048000001EB0010ABEB8000322101EB00106421C2
:10481000B0FBF1F000F00F00504421688860BDE863
:10482000F88F00000010014000140140014691F88B
:104830004100212828D18868B0F5805F0BD1086934
:1048400048B90A6A1088C0F308000B685860086A03
:10485000801C086205E00B6A581C086218780B6817
:104860005860C88C401E80B2C88458B90868C068B7
:1048700020F080000B68D8600868C06840F04000F5
:104880000B68D860002070470220FCE72DE9F84350
:1048900004460D4617469846089E31E0701C70B3DA
:1048A000FDF778F8A0EB0800B04200D816B9032055
:1048B000BDE8F8832068C06800F00400F8B1802DDE
:1048C0001ED0402D1CD020680068C0F3C000B0B1DD
:1048D00000BF0020009020680068009020684068B9
:1048E000009000BF00BF2046FFF7C6FD08206064AF
:1048F00000BF002084F8400000BF0120D8E7FFE798
:10490000206800682840A84201D1012000E0002072
:10491000B842C3D00020CBE708B53D480068006826
:1049200000F0200060B100BF00200090384800680F
:1049300000680090364800684068009000BF66E05C
:104940003448006800F01000002860D000BF00204C
:1049500000902F480068006800902D48006840686B
:10496000009000BF00BF2C480068006800F40020E1
:1049700038BB29480068006820F001002649096812
:104980000860254800684068C0F124002349088079
:1049900021480068006840F400201F490968086049
:1049A0001D480068006840F001001B490968086064
:1049B0001A48008812282AD119491A4801F0E2FC45
:1049C00025E015480068006820F0010012490968D8
:1049D0000860114800684068C0F124000F49088051
:1049E0001148806A20F400200F4988620A48006854
:1049F000006840F00100084909680860074800881D
:104A0000122804D106490748243001F0BBFC08BD38
:104A10008C040020004800401C050020BC00002041
:104A2000E8080020080900200060024010B5024894
:104A3000FEF780F910BD0000D404002000BFFEE79F
:104A400011B52DED020B9DF8002012490B88098845
:104A5000491C104C21801049CA549DF80130214650
:104A60000A880988491C21800B498B549DF8022033
:104A700021460B880988491C21800749CA549DF8A2
:104A8000033021460A880988491C218002498B5439
:104A90001EBD0000920000203006002010B5044624
:104AA0000021154802880088401C134B18801348C9
:104AB00081540022184601880088401C18800F4845
:104AC00042548021184602880088401C18800B48F8
:104AD00081547F22184601880088401C18800748AE
:104AE0004254184602880549204600F009F8002083
:104AF0000149088010BD000092000020300600200F
:104B000070B504460D461646FF2332462946204618
:104B1000FEF7A5FB70BD03B401984100009850EA70
:104B2000C12018BF04204A0D18BF40F0010040F218
:104B3000FF72B2EB515F08BF40F00200012808BFCE
:104B4000052002B07047000002480068C0F3022050
:104B5000704700000CED00E010B5002804DB0A07E8
:104B6000130E054A135406E00A07140E034A00F018
:104B70000F031B1FD45410BD00E400E018ED00E04B
:104B800070B5C1482DED020B2DED0E8B82B0119D3D
:104B900025F000449FEDBEDB9FEDBFEB84423EDB82
:104BA000A4F140511098A1F17F6108430FD0BC4897
:104BB000844202DC28D1109830B39DED100B02B076
:104BC000BDEC0E8B02B0BDE8704000F073BC9DEDF3
:104BD000100B53EC1D2B51EC100B02F09FFB9DEDC5
:104BE000100B41EC180B53EC1E2B51EC100B02F088
:104BF00095FB53EC182B02F091F941EC100B02B02D
:104C0000BDEC0E8B02B070BD0120FBF765FC02B05D
:104C1000BDEC0E8B02B0BDE8704000F061BCA14855
:104C20009FEDA18B844256DA9DED100BB4F1795FB4
:104C30000ADA51EC100BFFF76EFF042808BF00F0F2
:104C40005FFC9DED100BDAE753EC102B51EC100BD1
:104C500002F064FB41EC190B95480621B0EE490ABD
:104C6000F0EE690A784400F0A9FB53EC192B51ECE3
:104C7000100B02F053FB41EC1A0B8E48B0EE490AC0
:104C8000F0EE690A0421784400F098FB53EC192BEC
:104C900051EC100B02F042FB53EC182B02F03EF9E2
:104CA00041EC100B51EC1A0B53EC102B02F0DEF917
:104CB000CDE900019DED000B53EC102B9DED100B89
:104CC00051EC100B02F02AFB9DED101B53EC112B45
:104CD00002F024F9D2E09DED100B51EC100B00F026
:104CE00053FD53EC182B02F017FC9FED730BCDE92D
:104CF000000153EC102B9DED000B51EC100B02F05A
:104D00000DFB41EC190B6E480621B0EE490AF0EE9E
:104D1000690A784400F052FB53EC192B51EC100B4C
:104D200002F0FCFA41EC1B0B6648B0EE490AF0EECB
:104D3000690A0421784400F041FB53EC192B51EC33
:104D4000100B02F0EBFA53EC182B02F0E7F841ECF1
:104D50001C0B51EC190B01F0E7FB41EC180B5A4806
:104D60009FED5BABA04222DC53EC1C2B51EC1B0BE8
:104D700002F07CF9CDE900019DED000B51EC180B20
:104D800053EC102B02F0CAFA53EC182B02F0C6F8C1
:104D900053EC1A2B02F0C2FA53EC1D2B02F094FCD8
:104DA00053EC1E2B02F0B8FB41EC100B5FE08DEDD5
:104DB000008B002000909DED000B51EC180B53EC84
:104DC000102B02F0ABF89DED000B41EC1E0B53ECE9
:104DD000102B51EC100B02F0A1FA53EC192B02F03E
:104DE0009BFB53EC1E2B02F041F941EC190B53ECE9
:104DF0001C2B51EC1B0B02F039F941EC1B0B53EC53
:104E00001A2B51EC190B02F089FA53EC1D2B02F00E
:104E100083FB41EC190B53EC1A2B51EC180B02F0ED
:104E20007DFA53EC1B2B02F079FA53EC192B02F0AC
:104E30004BFC9DED000B41EC180B53EC1A2B51EC85
:104E4000100B02F06BFA9FED249B53EC192B02F030
:104E500063FB41EC100B51EC180B53EC102B02F0E0
:104E600033FC53EC192B02F057FB41EC100B002DD7
:104E70003FF7C5AE51EC100B02F012F841EC100BED
:104E8000BDE60000000000000000F03F0000000050
:104E9000075C143326A6913C182D4454FB21F93F9E
:104EA0000000F07F0000E03F000000000000F03F45
:104EB000A02D0000AE2D0000000000000000E03F2B
:104EC000F22C0000002D00003333EF3F0000000003
:104ED0000000000000000040182D4454FB21E93F71
:104EE00070B59B482DED020B2DED068B079D25F02F
:104EF0000044A04218DC9748844202DC0AD106989C
:104F000040B19DED060BBDEC068B02B0BDE87040D4
:104F100000F0D0BA002DCCBF9FED8F0B9FED900B12
:104F2000BDEC068B02B070BD8F48A04215DD8F48E6
:104F3000A042D8BF4FF0FF3458DD9DED060B51EC79
:104F4000100BFFF7E8FD042808BF00F0D9FA9DED2B
:104F5000060BBDEC068B02B070BD9DED060B51EC4F
:104F6000100B00F011FCCDE9060181489FED828B0A
:104F7000A0423CDD8248A0421FDD00249FED82ABB1
:104F80009DED060B53EC1A2B51EC100B01F0C6FFF4
:104F90009DED060B41EC190B53EC1A2B51EC100B49
:104FA00002F0BCF953EC182B02F08EFB53EC192BDA
:104FB00002F05CF8CDE9060149E09DED060B012405
:104FC00053EC182B51EC100B01F0A8FF9DED060BD4
:104FD00041EC190B53EC182B51EC100B02F074FB45
:104FE00053EC192B02F042F8CDE906012FE0684896
:104FF000A0421FDD02249FED689B9DED060B53EC44
:10500000192B51EC100B02F089F953EC182B01F01D
:1050100085FF9DED060B41EC180B53EC192B51EC61
:10502000100B02F051FB53EC182B02F01FF8CDE9E6
:1050300006010CE09DED060B032453EC102B9FEDB5
:10504000580B51EC100B02F011F8CDE906019DED63
:10505000060B53EC102B51EC100B02F05FF941ECF6
:10506000180B53EC182B02F059F941EC190B4E4870
:105070000621B0EE490AF0EE690A784400F09EF984
:1050800053EC182B51EC100B02F048F941EC180BC3
:105090004648B0EE490AF0EE690A0521784400F06E
:1050A0008DF953EC192B51EC100B02F037F941EC50
:1050B000100B51EC180B53EC102B002C0EDA01F0F6
:1050C0002DFF9DED061B53EC112B02F027F99DEDF2
:1050D000061B53EC112B02F01FFA35E001F01EFF06
:1050E0009DED061B53EC112B02F018F941EC100B4F
:1050F0002F48784400EBC40090ED001B51EC100BDE
:1051000053EC112B02F0E0FA9DED061B53EC112B32
:1051100002F0DAFA41EC100B2648784400EBC400A8
:1051200090ED001B51EC100B53EC112B02F0F4F935
:1051300041EC100B002DA2BFBDEC068B02B070BD80
:1051400051EC100B01F0ACFE41EC100B01E700003C
:10515000000010440000F07F182D4454FB21F93F5B
:10516000182D4454FB21F9BF0000DC3F0000203E15
:105170000000F33F00000000000000000000F03FCE
:105180000000E63F000000000000000000000040BA
:105190000080034000000000000000000000F83F15
:1051A000000000000000F0BF422A0000F8290000C3
:1051B000822900003A29000070B56B4E2DED040BDA
:1051C0002DED028B82B0DDF81CC0DDE905235C42C9
:1051D0002CF000411C4341EAD474049D22F00040AD
:1051E000B44205D86C422C4340EAD474B4420BD983
:1051F0009DED061B9DED040B02B0BDEC028B04B0CF
:10520000BDE8704000F060B9ACF14054A4F17F6497
:105210001C430BD0022404EAAC7444EAD274054364
:105220009FED538B9FED542B07D015E09DED040BA4
:1052300051EC100B00F074F942E0002C11BF012C6E
:105240009DED040B02B0BDEC028B04BF04B070BD39
:10525000022C38D0032C3BD00B439FED491B9FED14
:105260004A0B0AD0B14218D1B04209D121F0804195
:1052700020F08040079105900FE0002A15DA10E039
:10528000434B7B44002C08BF93ED000B0DD0012C49
:1052900010D0022C17D0032C1AD0B0421DD1002AF6
:1052A00003DAB0EE410AF0EE610A02B0BDEC028B07
:1052B00004B070BD93ED000B51EC100B01F0F0FD4C
:1052C00041EC100BF1E7B0EE480AF0EE680AECE7AB
:1052D000B0EE420AF0EE620AE7E7401A00153C28F9
:1052E000C8BF8DED000B19DCBCF1000FBEBF10F183
:1052F0003C0F9FED290B8DED000B0FDB9DED060B99
:1053000053EC102B9DED040B51EC100B01F0AEFE95
:1053100000F03AFA00F004F9CDE90001002C08BFD2
:105320009DED000BC1D0012C10D0022C9FED1C0B69
:1053300053EC102B9DED000B51EC100B0DD002F037
:10534000C3F953EC182B02F0BFF9B9E7019880F0CC
:10535000004001909DED000BA7E702F0B5F953EC7A
:10536000182B02F0D9F8ABE70000F07F0000000036
:10537000182D4454FB210940182D4454FB2109C029
:10538000182D4454FB21F9BF182D4454FB21F93F3B
:105390006A2800000000000000000000000000007B
:1053A000075C143326A6A13C2DED020B019820F0DA
:1053B000004001909DED000B02B0704770B50446AF
:1053C0002DED028B4D1E00EBC500B0EE408AF0EED5
:1053D000608A90ED000B35F0060017D053EC182BC7
:1053E00051EC100B01F09AFF41EC100B6D1E04EB19
:1053F000C50090ED001B51EC100B53EC112B01F08C
:105400008DFD41EC100B35F00600E7D1022D36D0B2
:10541000042D1CD0062D1CBFBDEC028B70BD53ECBF
:10542000182B51EC100B01F079FF94ED0A1B53EC93
:10543000112B01F073FD53EC182B01F06FFF94ED6D
:10544000081B53EC112B01F069FD41EC100B53ECE0
:10545000182B51EC100B01F061FF94ED061B53EC7F
:10546000112B01F05BFD53EC182B01F057FF94ED6D
:10547000040B53EC102B01F051FD41EC100B53ECDD
:10548000182B51EC100B01F049FF94ED021B53EC6B
:10549000112B01F043FD53EC182B01F03FFF94ED6D
:1054A000001B53EC112B01F039FDBDEC028B41ECDC
:1054B000100B70BD10B553EC102B51EC100B01F01C
:1054C0002DFD41EC100B10BD10B553EC112B51EC20
:1054D000100B01F023FD41EC100B10BD000000008B
:1054E0009FED050B10B553EC102B51EC100B01F098
:1054F000BDFD41EC100B10BD0000000000000000DD
:105500009FED050B10B553EC102B51EC100B01F077
:1055100005FF41EC100B10BD000000000000001062
:1055200010B541EC100BFFF7DBFC51EC100B10BD7C
:1055300070B500250024FBF71DF88020FBF75AF911
:105540005520FBF757F95520FBF754F90546FBF7B3
:1055500007F89620FBF73CF8FBF70CF88020FBF7E8
:1055600049F95520FBF746F95520FBF743F9054665
:10557000FAF7F6FF9620FBF72BF8FAF7FBFFB621B8
:105580007E20FBF747F9FAF7EBFF5020FBF713F803
:10559000FAF7F0FF8020FBF72DF95520FBF72AF9E9
:1055A0005520FBF727F90546FAF7DAFF9620FBF7B7
:1055B0000FF8FAF7DFFF8020FBF71CF95520FBF707
:1055C00019F95520FBF716F90546FAF7C9FF962099
:1055D000FAF7FEFF1E2D01D0FF2070BD002434E03D
:1055E000FAF7C8FF04EB44021A4B1A44517804EB53
:1055F0004402985CFBF70EF9FAF7B2FF9620FAF72F
:10560000E7FFFAF7B7FF04EB4401124A515C41F09F
:105610008000FBF7EFF85520FBF7ECF85520FBF77F
:10562000E9F80546FAF79CFF9620FAF7D1FF04EB5C
:105630004400084908444078A84204D004EB4400E0
:1056400008448078C9E7601CC4B2062CC8DB00207F
:10565000C3E700002400002038B50024002000909B
:10566000FAF79EFF69460020FBF7B7F8FAF78EFFBE
:105670009620FAF7ADFFFAF793FF69460020FBF793
:10568000ACF8FAF783FF9620FAF7A2FFFAF788FF43
:10569000B6211420FBF7BEF8FAF778FF5020FAF78E
:1056A0008AFFFAF77DFF69460020FBF796F8FAF7C4
:1056B0006DFF9620FAF78CFFFAF772FF694600201B
:1056C000FBF78BF8FAF762FF9620FAF781FF9DF857
:1056D00000000F2801D0FF2038BD00242FE0FAF78A
:1056E0005FFF04EB4402184B1A44517804EB440268
:1056F000985CFBF78FF8FAF749FF9620FAF768FFF6
:10570000FAF74EFF04EB44010F4A505C6946FBF781
:1057100064F8FAF73BFF9620FAF75AFF04EB4400CF
:105720000949084440789DF80010884205D004EBF0
:105730004400054908448078CEE7601CC4B2062CBA
:10574000CDDB0020C8E700003600002000B58BB09C
:10575000012009900020079001200890002001906E
:105760000290039004900690059001A90548FBF76C
:1057700001FA0448FBF7D7FD02210248FBF740F984
:105780000BB000BD7C03002082B0CDE9000121F008
:10579000004001909DED000B02B051EC100B7047E2
:1057A000F0EE400AF6EE001A60EEA11AB0EE611AB1
:1057B000B0EE600A10EE100A0749A1EB600000EE9F
:1057C000100A21EE002AF7EE081A42EE401A61EEA6
:1057D000801AB0EE610A7047DF59375F4A780B785C
:1057E00042EA03220280CA788B7842EA032212B28C
:1057F00042804A790B7942EA032212B282808A7986
:105800008271704700487047E808002000B59FED9E
:105810000D2ADFED0C1A9FED0C1ADFED0C0AB1EE2C
:10582000040A0B4800F09CFA9FED062ADFED091AE6
:10583000B7EE001ADFED080A9FED080A084800F0ED
:105840008FFA00BD00007A44CDCC4C3E0AD7233CF1
:1058500000080020000016443333333F0000484363
:105860003408002010B508B102B101B910BD92EDA5
:10587000000AB5EEC00AF1EE10FA1CDDD0F80E31C8
:1058800000EE103AD2ED000A30EE600AB5EEC00A22
:10589000F1EE10FA0FD2D0F80E311360D0F81631B5
:1058A00000EE103AD2ED000A30EE200A10EE103A67
:1058B000C0F81A3127E092ED000AB5EEC00AF1EE09
:1058C00010FA20D2D0F80E3100EE103AD2ED000AD4
:1058D00030EE200AB5EEC00AF1EE10FA13D2D0F87D
:1058E0000E3100EE103AB1EE400A82ED000AD0F817
:1058F000163100EE103AD2ED000A30EE200A10EE1A
:10590000103AC0F81A3191ED000AB5EEC00AF1EE76
:1059100010FA1CDDD0F87A3000EE103AD1ED000A12
:1059200030EE600AB5EEC00AF1EE10FA0FD2D0F8F0
:105930007A300B60D0F8823000EE103AD1ED000AD8
:1059400030EE200A10EE103AC0F8863027E091EDD4
:10595000000AB5EEC00AF1EE10FA20D2D0F87A3083
:1059600000EE103AD1ED000A30EE200AB5EEC00A82
:10597000F1EE10FA13D2D0F87A3000EE103AB1EE10
:10598000400A81ED000AD0F8823000EE103AD1EDE5
:10599000000A30EE200A10EE103AC0F8863000BF40
:1059A00064E7000010B504461048007800400F4935
:1059B0000978884201D1012000E00020A0B10C4903
:1059C000086800219FED0B0AFEF73CFA0849486879
:1059D00000219FED080AFEF735FA044800780349D4
:1059E000097888430149087010BD00009400002028
:1059F000980000200000000070B52DED048B0446D7
:105A00000D4616468048008800EE100AB8EE400A9F
:105A100010EE100AC4F816017B48B0F8070000EE3B
:105A2000100AB8EE400A10EE100AC4F88200D4F84A
:105A3000160100EE100AD6ED000A30EE200A10EE34
:105A4000100AC4F81A01D4F8820000EE100AD5ED4D
:105A5000000A30EE200A10EE100AC4F88600D4F8CE
:105A60001A1100EE101ABCEEC00A10EE101A88B21D
:105A7000002100F01BF910EE100AC4F81201D4F84E
:105A8000861000EE101ABCEEC00A10EE101A88B292
:105A9000002100F00BF910EE100AC4F87E00D4F8D3
:105AA000120100EE100ADFED590A30EE600AB5EE81
:105AB000C00AF1EE10FA1FDDD4F8120100EE100A50
:105AC000DFED520A30EE600A10EE101A084601F0BF
:105AD000E5FE41EC190BB0EE490AF0EE690AFFF75A
